{
  "_format": "hh-sol-artifact-1",
  "contractName": "Qoistip",
  "sourceName": "contracts/Qoistip.sol",
  "abi": [
    {
      "anonymous": false,
      "inputs": [
        {
          "indexed": false,
          "internalType": "address",
          "name": "previousAdmin",
          "type": "address"
        },
        {
          "indexed": false,
          "internalType": "address",
          "name": "newAdmin",
          "type": "address"
        }
      ],
      "name": "AdminChanged",
      "type": "event"
    },
    {
      "anonymous": false,
      "inputs": [
        {
          "indexed": true,
          "internalType": "address",
          "name": "beacon",
          "type": "address"
        }
      ],
      "name": "BeaconUpgraded",
      "type": "event"
    },
    {
      "anonymous": false,
      "inputs": [
        {
          "indexed": true,
          "internalType": "address",
          "name": "donator",
          "type": "address"
        },
        {
          "indexed": true,
          "internalType": "address",
          "name": "addressToDonate",
          "type": "address"
        },
        {
          "indexed": false,
          "internalType": "address",
          "name": "tokenAddress",
          "type": "address"
        },
        {
          "indexed": false,
          "internalType": "uint256",
          "name": "tokenAmount",
          "type": "uint256"
        }
      ],
      "name": "Donate",
      "type": "event"
    },
    {
      "anonymous": false,
      "inputs": [
        {
          "indexed": true,
          "internalType": "address",
          "name": "customerAddress",
          "type": "address"
        },
        {
          "indexed": false,
          "internalType": "address",
          "name": "customerToken",
          "type": "address"
        }
      ],
      "name": "NewCustomer",
      "type": "event"
    },
    {
      "anonymous": false,
      "inputs": [
        {
          "indexed": true,
          "internalType": "address",
          "name": "previousOwner",
          "type": "address"
        },
        {
          "indexed": true,
          "internalType": "address",
          "name": "newOwner",
          "type": "address"
        }
      ],
      "name": "OwnershipTransferred",
      "type": "event"
    },
    {
      "anonymous": false,
      "inputs": [
        {
          "indexed": true,
          "internalType": "address",
          "name": "implementation",
          "type": "address"
        }
      ],
      "name": "Upgraded",
      "type": "event"
    },
    {
      "anonymous": false,
      "inputs": [
        {
          "indexed": true,
          "internalType": "address",
          "name": "customer",
          "type": "address"
        },
        {
          "indexed": false,
          "internalType": "address",
          "name": "tokenAddress",
          "type": "address"
        },
        {
          "indexed": false,
          "internalType": "uint256",
          "name": "tokenAmount",
          "type": "uint256"
        }
      ],
      "name": "Withdraw",
      "type": "event"
    },
    {
      "inputs": [
        {
          "internalType": "address",
          "name": "_customerAddress",
          "type": "address"
        },
        {
          "internalType": "address",
          "name": "_tokenAddress",
          "type": "address"
        }
      ],
      "name": "balanceOfERC20",
      "outputs": [
        {
          "internalType": "uint256",
          "name": "balance",
          "type": "uint256"
        }
      ],
      "stateMutability": "view",
      "type": "function"
    },
    {
      "inputs": [
        {
          "internalType": "address",
          "name": "_customerAddress",
          "type": "address"
        }
      ],
      "name": "balanceOfETH",
      "outputs": [
        {
          "internalType": "uint256",
          "name": "balance",
          "type": "uint256"
        }
      ],
      "stateMutability": "view",
      "type": "function"
    },
    {
      "inputs": [
        {
          "internalType": "address",
          "name": "_addressToDonate",
          "type": "address"
        },
        {
          "internalType": "address",
          "name": "_tokenAddress",
          "type": "address"
        },
        {
          "internalType": "uint256",
          "name": "_tokenAmount",
          "type": "uint256"
        }
      ],
      "name": "donateERC20",
      "outputs": [],
      "stateMutability": "nonpayable",
      "type": "function"
    },
    {
      "inputs": [
        {
          "internalType": "address",
          "name": "_addressToDonate",
          "type": "address"
        }
      ],
      "name": "donateETH",
      "outputs": [],
      "stateMutability": "payable",
      "type": "function"
    },
    {
      "inputs": [],
      "name": "fee",
      "outputs": [
        {
          "internalType": "uint256",
          "name": "",
          "type": "uint256"
        }
      ],
      "stateMutability": "view",
      "type": "function"
    },
    {
      "inputs": [],
      "name": "initialize",
      "outputs": [],
      "stateMutability": "nonpayable",
      "type": "function"
    },
    {
      "inputs": [],
      "name": "owner",
      "outputs": [
        {
          "internalType": "address",
          "name": "",
          "type": "address"
        }
      ],
      "stateMutability": "view",
      "type": "function"
    },
    {
      "inputs": [
        {
          "internalType": "address",
          "name": "_tokenAddress",
          "type": "address"
        }
      ],
      "name": "priceOracle",
      "outputs": [
        {
          "internalType": "bytes32",
          "name": "data",
          "type": "bytes32"
        }
      ],
      "stateMutability": "view",
      "type": "function"
    },
    {
      "inputs": [],
      "name": "proxiableUUID",
      "outputs": [
        {
          "internalType": "bytes32",
          "name": "",
          "type": "bytes32"
        }
      ],
      "stateMutability": "view",
      "type": "function"
    },
    {
      "inputs": [
        {
          "internalType": "string",
          "name": "_tokenSymbol",
          "type": "string"
        },
        {
          "internalType": "string",
          "name": "_tokenName",
          "type": "string"
        }
      ],
      "name": "registerCustomer",
      "outputs": [],
      "stateMutability": "nonpayable",
      "type": "function"
    },
    {
      "inputs": [],
      "name": "renounceOwnership",
      "outputs": [],
      "stateMutability": "nonpayable",
      "type": "function"
    },
    {
      "inputs": [
        {
          "internalType": "uint256",
          "name": "_newFee",
          "type": "uint256"
        }
      ],
      "name": "setFee",
      "outputs": [],
      "stateMutability": "nonpayable",
      "type": "function"
    },
    {
      "inputs": [
        {
          "internalType": "uint256",
          "name": "_newMinValue",
          "type": "uint256"
        }
      ],
      "name": "setMinValue",
      "outputs": [],
      "stateMutability": "nonpayable",
      "type": "function"
    },
    {
      "inputs": [
        {
          "internalType": "address",
          "name": "_tokenAddress",
          "type": "address"
        },
        {
          "internalType": "bytes32",
          "name": "_priceOracleData",
          "type": "bytes32"
        }
      ],
      "name": "setPriceOracle",
      "outputs": [],
      "stateMutability": "nonpayable",
      "type": "function"
    },
    {
      "inputs": [
        {
          "internalType": "address",
          "name": "_customerAddress",
          "type": "address"
        }
      ],
      "name": "tokenCustomer",
      "outputs": [
        {
          "internalType": "address",
          "name": "",
          "type": "address"
        }
      ],
      "stateMutability": "view",
      "type": "function"
    },
    {
      "inputs": [
        {
          "internalType": "address",
          "name": "newOwner",
          "type": "address"
        }
      ],
      "name": "transferOwnership",
      "outputs": [],
      "stateMutability": "nonpayable",
      "type": "function"
    },
    {
      "inputs": [
        {
          "internalType": "address",
          "name": "newImplementation",
          "type": "address"
        }
      ],
      "name": "upgradeTo",
      "outputs": [],
      "stateMutability": "nonpayable",
      "type": "function"
    },
    {
      "inputs": [
        {
          "internalType": "address",
          "name": "newImplementation",
          "type": "address"
        },
        {
          "internalType": "bytes",
          "name": "data",
          "type": "bytes"
        }
      ],
      "name": "upgradeToAndCall",
      "outputs": [],
      "stateMutability": "payable",
      "type": "function"
    },
    {
      "inputs": [],
      "name": "version",
      "outputs": [
        {
          "internalType": "uint8",
          "name": "",
          "type": "uint8"
        }
      ],
      "stateMutability": "pure",
      "type": "function"
    },
    {
      "inputs": [
        {
          "internalType": "address",
          "name": "_tokenAddress",
          "type": "address"
        }
      ],
      "name": "withdrawERC20",
      "outputs": [],
      "stateMutability": "nonpayable",
      "type": "function"
    },
    {
      "inputs": [],
      "name": "withdrawETH",
      "outputs": [],
      "stateMutability": "payable",
      "type": "function"
    },
    {
      "inputs": [
        {
          "internalType": "address[]",
          "name": "_tokenAddress",
          "type": "address[]"
        }
      ],
      "name": "withdrawManyERC20",
      "outputs": [],
      "stateMutability": "nonpayable",
      "type": "function"
    }
  ],
  "bytecode": "0x60a06040523060805234801561001457600080fd5b50608051612c0f61004c600039600081816104a4015281816104f001528181610598015281816105db01526106770152612c0f6000f3fe6080604052600436106200014f5760003560e01c80638da5cb5b11620000b9578063ddca3f431162000078578063ddca3f4314620003cd578063e086e5ec14620003e4578063ec15672514620003ee578063f2fde38b1462000413578063f4f3b2001462000438578063fbd2ba0c146200045d57600080fd5b80638da5cb5b1462000313578063a1e14f9f1462000347578063ae07e278146200035e578063db0f98941462000383578063db91774c14620003a857600080fd5b8063561cd4621162000112578063561cd462146200021557806359c01213146200024f57806369fe0e2d1462000274578063715018a614620002995780637e50205e14620002b15780638129fc1c14620002fb57600080fd5b80632951f1b214620001545780633659cfe614620001a15780634f1ef28614620001c857806352d1902d14620001df57806354fd4d5014620001f7575b600080fd5b3480156200016157600080fd5b506200018e62000173366004620018d3565b6001600160a01b0316600090815260c9602052604090205490565b6040519081526020015b60405180910390f35b348015620001ae57600080fd5b50620001c6620001c0366004620018d3565b6200049a565b005b620001c6620001d936600462001984565b6200058e565b348015620001ec57600080fd5b506200018e6200066a565b3480156200020457600080fd5b506040516001815260200162000198565b3480156200022257600080fd5b506200018e62000234366004620018d3565b6001600160a01b0316600090815260cc602052604090205490565b3480156200025c57600080fd5b50620001c66200026e366004620019ed565b62000720565b3480156200028157600080fd5b50620001c66200029336600462001a1a565b62000769565b348015620002a657600080fd5b50620001c6620007aa565b348015620002be57600080fd5b506200018e620002d036600462001a34565b6001600160a01b03918216600090815260cb6020908152604080832093909416825291909152205490565b3480156200030857600080fd5b50620001c6620007e5565b3480156200032057600080fd5b506097546001600160a01b03165b6040516001600160a01b03909116815260200162000198565b620001c662000358366004620018d3565b620008bf565b3480156200036b57600080fd5b50620001c66200037d36600462001a6c565b62000ae9565b3480156200039057600080fd5b50620001c6620003a236600462001b09565b62000b34565b348015620003b557600080fd5b50620001c6620003c736600462001a1a565b62000c54565b348015620003da57600080fd5b5060cd546200018e565b620001c662000c86565b348015620003fb57600080fd5b50620001c66200040d36600462001b6a565b62000dbb565b3480156200042057600080fd5b50620001c662000432366004620018d3565b6200105a565b3480156200044557600080fd5b50620001c662000457366004620018d3565b620010f9565b3480156200046a57600080fd5b506200032e6200047c366004620018d3565b6001600160a01b03908116600090815260ca60205260409020541690565b6001600160a01b037f0000000000000000000000000000000000000000000000000000000000000000163003620004ee5760405162461bcd60e51b8152600401620004e59062001bab565b60405180910390fd5b7f00000000000000000000000000000000000000000000000000000000000000006001600160a01b03166200053960008051602062002b93833981519152546001600160a01b031690565b6001600160a01b031614620005625760405162461bcd60e51b8152600401620004e59062001bf7565b6200056d8162001294565b604080516000808252602082019092526200058b91839190620012c1565b50565b6001600160a01b037f0000000000000000000000000000000000000000000000000000000000000000163003620005d95760405162461bcd60e51b8152600401620004e59062001bab565b7f00000000000000000000000000000000000000000000000000000000000000006001600160a01b03166200062460008051602062002b93833981519152546001600160a01b031690565b6001600160a01b0316146200064d5760405162461bcd60e51b8152600401620004e59062001bf7565b620006588262001294565b6200066682826001620012c1565b5050565b6000306001600160a01b037f000000000000000000000000000000000000000000000000000000000000000016146200070c5760405162461bcd60e51b815260206004820152603860248201527f555550535570677261646561626c653a206d757374206e6f742062652063616c60448201527f6c6564207468726f7567682064656c656761746563616c6c00000000000000006064820152608401620004e5565b5060008051602062002b9383398151915290565b6097546001600160a01b031633146200074d5760405162461bcd60e51b8152600401620004e59062001c43565b6001600160a01b03909116600090815260c96020526040902055565b6097546001600160a01b03163314620007965760405162461bcd60e51b8152600401620004e59062001c43565b6127108110620007a557600080fd5b60cd55565b6097546001600160a01b03163314620007d75760405162461bcd60e51b8152600401620004e59062001c43565b620007e360006200143e565b565b600054610100900460ff16620008025760005460ff161562000806565b303b155b6200086b5760405162461bcd60e51b815260206004820152602e60248201527f496e697469616c697a61626c653a20636f6e747261637420697320616c72656160448201526d191e481a5b9a5d1a585b1a5e995960921b6064820152608401620004e5565b600054610100900460ff161580156200088e576000805461ffff19166101011790555b6200089862001490565b6125e460cd5567016345785d8a000060ce5580156200058b576000805461ff001916905550565b6000735f4ec3df9cbd43714fe2740f5e3616155c5b84196001600160a01b031663feaf968c6040518163ffffffff1660e01b815260040160a060405180830381865afa15801562000914573d6000803e3d6000fd5b505050506040513d601f19601f820116820180604052508101906200093a919062001c93565b5050509150506000670de0b6b3a764000034836402540be4006200095f919062001cfe565b6200096b919062001cfe565b62000977919062001d36565b905060ce54811015620009cd5760405162461bcd60e51b815260206004820152601a60248201527f446f6e61746520776f727468203c206d696e2076616c756520240000000000006044820152606401620004e5565b600061271060cd5434620009e2919062001cfe565b620009ee919062001d36565b6001600160a01b038516600090815260cc60205260409020819055905062000a17813462001d4d565b30600090815260cc60209081526040808320939093556001600160a01b03878116835260ca909152908290205491516340c10f1960e01b8152336004820152602481018590529116906340c10f1990604401600060405180830381600087803b15801562000a8457600080fd5b505af115801562000a99573d6000803e3d6000fd5b505060408051600081523460208201526001600160a01b03881693503392507f926c014a021d0c02ba786ba65252d955a4b3ee5afd50a9e9bad13aea855e1a6f910160405180910390a350505050565b8060005b81811462000b2e5762000b2584848381811062000b0e5762000b0e62001d67565b9050602002016020810190620004579190620018d3565b60010162000aed565b50505050565b33600090815260ca60205260409020546001600160a01b03161562000bad5760405162461bcd60e51b815260206004820152602860248201527f54686973206164647265737320686173206265656e20616c726561647920726560448201526719da5cdd195c995960c21b6064820152608401620004e5565b6000828260405162000bbf90620018a8565b62000bcc92919062001dda565b604051809103906000f08015801562000be9573d6000803e3d6000fd5b5033600081815260ca602090815260409182902080546001600160a01b0319166001600160a01b038616908117909155915191825292935090917fb9a729146003b2590bfdbb9eb4b38762acf6ff00de0202bb350d30a152fcce9891015b60405180910390a2505050565b6097546001600160a01b0316331462000c815760405162461bcd60e51b8152600401620004e59062001c43565b60ce55565b33600090815260cc60205260408120549081900362000cd95760405162461bcd60e51b815260206004820152600e60248201526d0b2deea40d0c2ecca4060408aa8960931b6044820152606401620004e5565b33600081815260cc60205260408082208290555190919083908381818185875af1925050503d806000811462000d2c576040519150601f19603f3d011682016040523d82523d6000602084013e62000d31565b606091505b505090508062000d7b5760405162461bcd60e51b81526020600482015260146024820152732330b4b632b2103a379039b2b7321022ba3432b960611b6044820152606401620004e5565b60408051600081526020810184905233917f9b1bfa7fa9ee420a16e124f794c35ac9f90472acc99140eb2f6447c714cad8eb910160405180910390a25050565b6001600160a01b03808416600090815260ca6020526040902054168062000e315760405162461bcd60e51b8152602060048201526024808201527f4164647265737320746f20646f6e61746520776173206e6f7420726567697374604482015263195c995960e21b6064820152608401620004e5565b6000670de0b6b3a76400008362000e4886620014c4565b62000e54919062001cfe565b62000e60919062001d36565b905060ce5481101562000eb65760405162461bcd60e51b815260206004820152601a60248201527f446f6e61746520776f727468203c206d696e2076616c756520240000000000006044820152606401620004e5565b6040516323b872dd60e01b8152336004820152306024820152604481018490526001600160a01b038516906323b872dd906064016020604051808303816000875af115801562000f0a573d6000803e3d6000fd5b505050506040513d601f19601f8201168201806040525081019062000f30919062001e03565b50600061271060cd548562000f46919062001cfe565b62000f52919062001d36565b6001600160a01b03808816600090815260cb60209081526040808320938a16835292905220819055905062000f88818562001d4d565b30600090815260cb602090815260408083206001600160a01b038a8116855292529182902092909255516340c10f1960e01b815233600482015260248101849052908416906340c10f1990604401600060405180830381600087803b15801562000ff157600080fd5b505af115801562001006573d6000803e3d6000fd5b5050604080516001600160a01b038981168252602082018990528a1693503392507f926c014a021d0c02ba786ba65252d955a4b3ee5afd50a9e9bad13aea855e1a6f910160405180910390a3505050505050565b6097546001600160a01b03163314620010875760405162461bcd60e51b8152600401620004e59062001c43565b6001600160a01b038116620010ee5760405162461bcd60e51b815260206004820152602660248201527f4f776e61626c653a206e6577206f776e657220697320746865207a65726f206160448201526564647265737360d01b6064820152608401620004e5565b6200058b816200143e565b33600090815260cb602090815260408083206001600160a01b0385168452909152812054908190036200116f5760405162461bcd60e51b815260206004820152601c60248201527f596f752068617665203020746f6b656e73206f6e2062616c616e6365000000006044820152606401620004e5565b33600081815260cb602090815260408083206001600160a01b03871680855292528083208390555163a9059cbb60e01b8152600481019390935260248301849052909163a9059cbb906044016020604051808303816000875af1158015620011db573d6000803e3d6000fd5b505050506040513d601f19601f8201168201806040525081019062001201919062001e03565b905080620012525760405162461bcd60e51b815260206004820152601a60248201527f5769746864726177204552433230206e6f7420737563636573730000000000006044820152606401620004e5565b604080516001600160a01b03851681526020810184905233917f9b1bfa7fa9ee420a16e124f794c35ac9f90472acc99140eb2f6447c714cad8eb910162000c47565b6097546001600160a01b031633146200058b5760405162461bcd60e51b8152600401620004e59062001c43565b7f4910fdfa16fed3260ed0e7147f7cc6da11a60208b5b9406d12a635614ffd91435460ff1615620012fc57620012f78362001634565b505050565b826001600160a01b03166352d1902d6040518163ffffffff1660e01b8152600401602060405180830381865afa92505050801562001359575060408051601f3d908101601f19168201909252620013569181019062001e27565b60015b620013be5760405162461bcd60e51b815260206004820152602e60248201527f45524331393637557067726164653a206e657720696d706c656d656e7461746960448201526d6f6e206973206e6f74205555505360901b6064820152608401620004e5565b60008051602062002b938339815191528114620014305760405162461bcd60e51b815260206004820152602960248201527f45524331393637557067726164653a20756e737570706f727465642070726f786044820152681a58589b195555525160ba1b6064820152608401620004e5565b50620012f7838383620016d3565b609780546001600160a01b038381166001600160a01b0319831681179093556040519116919082907f8be0079c531659141344cd1fd0a4f28419497f9722a3daafe3b4186f6b6457e090600090a35050565b600054610100900460ff16620014ba5760405162461bcd60e51b8152600401620004e59062001e41565b620007e3620016fe565b6001600160a01b038116600090815260c96020526040808220548151633fabe5a360e21b8152915190918391606084901c9163feaf968c9160048083019260a09291908290030181865afa15801562001521573d6000803e3d6000fd5b505050506040513d601f19601f8201168201806040525081019062001547919062001c93565b509193505050506001605f1b82166000036200156557600062001568565b60015b1562001587576200157f816402540be40062001e8c565b949350505050565b600073986b5e1e1755e3c2440e960477f25201b0a8bbd46001600160a01b031663feaf968c6040518163ffffffff1660e01b815260040160a060405180830381865afa158015620015dc573d6000803e3d6000fd5b505050506040513d601f19601f8201168201806040525081019062001602919062001c93565b5050509150508082670de0b6b3a76400006200161f919062001e8c565b6200162b919062001f1d565b95945050505050565b6001600160a01b0381163b620016a35760405162461bcd60e51b815260206004820152602d60248201527f455243313936373a206e657720696d706c656d656e746174696f6e206973206e60448201526c1bdd08184818dbdb9d1c9858dd609a1b6064820152608401620004e5565b60008051602062002b9383398151915280546001600160a01b0319166001600160a01b0392909216919091179055565b620016de8362001733565b600082511180620016ec5750805b15620012f75762000b2e838362001775565b600054610100900460ff16620017285760405162461bcd60e51b8152600401620004e59062001e41565b620007e3336200143e565b6200173e8162001634565b6040516001600160a01b038216907fbc7cd75a20ee27fd9adebab32041f755214dbc6bffa90cc0225b39da2e5c2d3b90600090a250565b60606001600160a01b0383163b620017df5760405162461bcd60e51b815260206004820152602660248201527f416464726573733a2064656c65676174652063616c6c20746f206e6f6e2d636f6044820152651b9d1c9858dd60d21b6064820152608401620004e5565b600080846001600160a01b031684604051620017fc919062001f51565b600060405180830381855af49150503d806000811462001839576040519150601f19603f3d011682016040523d82523d6000602084013e6200183e565b606091505b50915091506200162b828260405180606001604052806027815260200162002bb3602791396060831562001874575081620018a1565b825115620018855782518084602001fd5b8160405162461bcd60e51b8152600401620004e5919062001f6f565b9392505050565b610c0e8062001f8583390190565b80356001600160a01b0381168114620018ce57600080fd5b919050565b600060208284031215620018e657600080fd5b620018a182620018b6565b634e487b7160e01b600052604160045260246000fd5b600067ffffffffffffffff80841115620019255762001925620018f1565b604051601f8501601f19908116603f01168101908282118183101715620019505762001950620018f1565b816040528093508581528686860111156200196a57600080fd5b858560208301376000602087830101525050509392505050565b600080604083850312156200199857600080fd5b620019a383620018b6565b9150602083013567ffffffffffffffff811115620019c057600080fd5b8301601f81018513620019d257600080fd5b620019e38582356020840162001907565b9150509250929050565b6000806040838503121562001a0157600080fd5b62001a0c83620018b6565b946020939093013593505050565b60006020828403121562001a2d57600080fd5b5035919050565b6000806040838503121562001a4857600080fd5b62001a5383620018b6565b915062001a6360208401620018b6565b90509250929050565b6000806020838503121562001a8057600080fd5b823567ffffffffffffffff8082111562001a9957600080fd5b818501915085601f83011262001aae57600080fd5b81358181111562001abe57600080fd5b8660208260051b850101111562001ad457600080fd5b60209290920196919550909350505050565b600082601f83011262001af857600080fd5b620018a18383356020850162001907565b6000806040838503121562001b1d57600080fd5b823567ffffffffffffffff8082111562001b3657600080fd5b62001b448683870162001ae6565b9350602085013591508082111562001b5b57600080fd5b50620019e38582860162001ae6565b60008060006060848603121562001b8057600080fd5b62001b8b84620018b6565b925062001b9b60208501620018b6565b9150604084013590509250925092565b6020808252602c908201527f46756e6374696f6e206d7573742062652063616c6c6564207468726f7567682060408201526b19195b1959d85d1958d85b1b60a21b606082015260800190565b6020808252602c908201527f46756e6374696f6e206d7573742062652063616c6c6564207468726f7567682060408201526b6163746976652070726f787960a01b606082015260800190565b6020808252818101527f4f776e61626c653a2063616c6c6572206973206e6f7420746865206f776e6572604082015260600190565b805169ffffffffffffffffffff81168114620018ce57600080fd5b600080600080600060a0868803121562001cac57600080fd5b62001cb78662001c78565b945060208601519350604086015192506060860151915062001cdc6080870162001c78565b90509295509295909350565b634e487b7160e01b600052601160045260246000fd5b600081600019048311821515161562001d1b5762001d1b62001ce8565b500290565b634e487b7160e01b600052601260045260246000fd5b60008262001d485762001d4862001d20565b500490565b60008282101562001d625762001d6262001ce8565b500390565b634e487b7160e01b600052603260045260246000fd5b60005b8381101562001d9a57818101518382015260200162001d80565b8381111562000b2e5750506000910152565b6000815180845262001dc681602086016020860162001d7d565b601f01601f19169290920160200192915050565b60408152600062001def604083018562001dac565b82810360208401526200162b818562001dac565b60006020828403121562001e1657600080fd5b81518015158114620018a157600080fd5b60006020828403121562001e3a57600080fd5b5051919050565b6020808252602b908201527f496e697469616c697a61626c653a20636f6e7472616374206973206e6f74206960408201526a6e697469616c697a696e6760a81b606082015260800190565b60006001600160ff1b038184138284138082168684048611161562001eb55762001eb562001ce8565b600160ff1b600087128281168783058912161562001ed75762001ed762001ce8565b6000871292508782058712848416161562001ef65762001ef662001ce8565b8785058712818416161562001f0f5762001f0f62001ce8565b505050929093029392505050565b60008262001f2f5762001f2f62001d20565b600160ff1b82146000198414161562001f4c5762001f4c62001ce8565b500590565b6000825162001f6581846020870162001d7d565b9190910192915050565b602081526000620018a1602083018462001dac56fe60806040523480156200001157600080fd5b5060405162000c0e38038062000c0e8339810160408190526200003491620001ed565b8051620000499060009060208401906200007a565b5081516200005f9060019060208501906200007a565b5050600380546001600160a01b031916331790555062000293565b828054620000889062000257565b90600052602060002090601f016020900481019282620000ac5760008555620000f7565b82601f10620000c757805160ff1916838001178555620000f7565b82800160010185558215620000f7579182015b82811115620000f7578251825591602001919060010190620000da565b506200010592915062000109565b5090565b5b808211156200010557600081556001016200010a565b634e487b7160e01b600052604160045260246000fd5b600082601f8301126200014857600080fd5b81516001600160401b038082111562000165576200016562000120565b604051601f8301601f19908116603f0116810190828211818310171562000190576200019062000120565b81604052838152602092508683858801011115620001ad57600080fd5b600091505b83821015620001d15785820183015181830184015290820190620001b2565b83821115620001e35760008385830101525b9695505050505050565b600080604083850312156200020157600080fd5b82516001600160401b03808211156200021957600080fd5b620002278683870162000136565b935060208501519150808211156200023e57600080fd5b506200024d8582860162000136565b9150509250929050565b600181811c908216806200026c57607f821691505b6020821081036200028d57634e487b7160e01b600052602260045260246000fd5b50919050565b61096b80620002a36000396000f3fe608060405234801561001057600080fd5b50600436106100cf5760003560e01c806342966c681161008c57806395d89b411161006657806395d89b41146101b5578063a6f9dae1146101bd578063a9059cbb146101d0578063dd62ed3e146101e357600080fd5b806342966c681461015e57806370a08231146101715780638da5cb5b1461019a57600080fd5b806306fdde03146100d4578063095ea7b3146100f257806318160ddd1461011557806323b872dd14610127578063313ce5671461013a57806340c10f1914610149575b600080fd5b6100dc61021c565b6040516100e99190610796565b60405180910390f35b610105610100366004610802565b6102ae565b60405190151581526020016100e9565b6002545b6040519081526020016100e9565b61010561013536600461082c565b61031a565b604051601281526020016100e9565b61015c610157366004610802565b6103da565b005b61015c61016c366004610868565b61047e565b61011961017f366004610881565b6001600160a01b031660009081526005602052604090205490565b6003546040516001600160a01b0390911681526020016100e9565b6100dc61052d565b6101056101cb366004610881565b61053c565b6101056101de366004610802565b610600565b6101196101f13660046108a3565b6001600160a01b03918216600090815260046020908152604080832093909416825291909152205490565b60606000805461022b906108d6565b80601f0160208091040260200160405190810160405280929190818152602001828054610257906108d6565b80156102a45780601f10610279576101008083540402835291602001916102a4565b820191906000526020600020905b81548152906001019060200180831161028757829003601f168201915b5050505050905090565b3360008181526004602090815260408083206001600160a01b038716808552925280832085905551919290917f8c5be1e5ebec7d5bd14f71427d1e84f3dd0314c0f7b2291e5b200ac8c7c3b925906103099086815260200190565b60405180910390a350600192915050565b6001600160a01b03831660009081526004602090815260408083203384529091528120548281101561038c5760405162461bcd60e51b8152602060048201526016602482015275496e73756666696369656e7420616c6c6f77616e636560501b60448201526064015b60405180910390fd5b60001981146103c45761039f8382610910565b6001600160a01b03861660009081526004602090815260408083203384529091529020555b6103cf858585610616565b506001949350505050565b6003546001600160a01b031633146104215760405162461bcd60e51b815260206004820152600a60248201526927b7363c9037bbb732b960b11b6044820152606401610383565b6001600160a01b03821660008181526005602090815260408083208054860190556002805486019055518481527fddf252ad1be2c89b69c2b068fc378daa952ba7f163c4a11628f55a4df523b3ef91015b60405180910390a35050565b33600090815260056020526040902054818110156104de5760405162461bcd60e51b815260206004820152601b60248201527f4275726e20616d6f756e7420657863656564732062616c616e636500000000006044820152606401610383565b3360008181526005602090815260408083208686039055600280548790039055518581529192917fddf252ad1be2c89b69c2b068fc378daa952ba7f163c4a11628f55a4df523b3ef9101610472565b60606001805461022b906108d6565b6003546000906001600160a01b031633146105865760405162461bcd60e51b815260206004820152600a60248201526927b7363c9037bbb732b960b11b6044820152606401610383565b6001600160a01b0382166105dc5760405162461bcd60e51b815260206004820152601960248201527f4e6577206f776e6572206973207a65726f2061646472657373000000000000006044820152606401610383565b50600380546001600160a01b0319166001600160a01b03831617905560015b919050565b600061060d338484610616565b50600192915050565b6001600160a01b03821661066c5760405162461bcd60e51b815260206004820152601860248201527f5472616e7366657220746f207a65726f206164647265737300000000000000006044820152606401610383565b306001600160a01b038316036106c45760405162461bcd60e51b815260206004820152601860248201527f5472616e7366657220746f2074686973206164647265737300000000000000006044820152606401610383565b6001600160a01b038316600090815260056020526040902054818110156107265760405162461bcd60e51b8152602060048201526016602482015275416d6f756e7420657863656564732062616c616e636560501b6044820152606401610383565b6001600160a01b03808516600081815260056020526040808220805487900390559286168082529083902080548601905591517fddf252ad1be2c89b69c2b068fc378daa952ba7f163c4a11628f55a4df523b3ef906107889086815260200190565b60405180910390a350505050565b600060208083528351808285015260005b818110156107c3578581018301518582016040015282016107a7565b818111156107d5576000604083870101525b50601f01601f1916929092016040019392505050565b80356001600160a01b03811681146105fb57600080fd5b6000806040838503121561081557600080fd5b61081e836107eb565b946020939093013593505050565b60008060006060848603121561084157600080fd5b61084a846107eb565b9250610858602085016107eb565b9150604084013590509250925092565b60006020828403121561087a57600080fd5b5035919050565b60006020828403121561089357600080fd5b61089c826107eb565b9392505050565b600080604083850312156108b657600080fd5b6108bf836107eb565b91506108cd602084016107eb565b90509250929050565b600181811c908216806108ea57607f821691505b60208210810361090a57634e487b7160e01b600052602260045260246000fd5b50919050565b60008282101561093057634e487b7160e01b600052601160045260246000fd5b50039056fea26469706673582212205f227ca7522a14ef3fc907d3bc6880de8d7816779043495472a919e1abde4c9c64736f6c634300080d0033360894a13ba1a3210667c828492db98dca3e2076cc3735a920a3ca505d382bbc416464726573733a206c6f772d6c6576656c2064656c65676174652063616c6c206661696c6564a2646970667358221220901da354dad6521d42a5d688564f7085facf430140e6a976fa96315f0154f4fd64736f6c634300080d0033",
  "linkReferences": {},
  "deployedLinkReferences": {}
}